:100000000C942A000C9447000C9447000C94470071
:100010000C9447000C9447000C9447000C94470044
:100020000C9447000C9447000C9447000C94470034
:100030000C9447000C9447000C9447000C94470024
:100040000C9447000C9447000C9447000C94470014
:100050000C94470011241FBECFE5D8E0DEBFCDBF12
:1000600010E0A0E6B0E0EAE8F2E002C005900D92F0
:10007000A036B107D9F710E0A0E6B0E001C01D92AC
:10008000A036B107E1F70E9489000C9443010C945B
:10009000000090BD89B988E18AB986E880BD0895DD
:1000A0005D9BFECF8CB908955F9BFECF8CB1089508
:1000B000803319F420E330E02AC0813319F421E3BE
:1000C00030E025C0823319F422E330E020C08333CE
:1000D00019F423E330E01BC0843319F424E330E047
:1000E00016C0853319F425E330E011C0863319F4C6
:1000F00026E330E00CC0873319F427E330E007C073
:10010000883319F029E330E002C028E330E0C90168
:1001100008958F929F92AF92BF92CF92DF92EF920B
:10012000FF920F931F93CF93DF938FEF87BB10BC8A
:1001300083E389B988E18AB986E880BDFCE0AF2E07
:10014000E4E68E2E912C77E0B72EC8ECD0E064E088
:10015000C62EA8BA5F9BFECF8CB15D9BFECF8CB93B
:100160008235B9F75F9BFECF8CB15F9BFECF0CB1A0
:100170005F9BFECFDCB05D9BFECF8CB95D9BFECF5D
:100180000CB95D9BFECFDCB80E9458007C01802F2B
:100190000E9458008C018D2D0E94580020ED3FEFE9
:1001A000E20EF31E005310409C0120533040E89CA7
:1001B000C001E99C900DF89C900D1124280F391F67
:1001C000C80153E0880F991F5A95E1F7000F111FDE
:1001D000800F911F280F391FC9018897899708F050
:1001E000B8CFC901865490400A9788F4B8BA8CED0C
:1001F00095E0FE013197F1F70197D9F7C8BA8CEF76
:1002000098E0FE013197F1F70197D9F7A2CFC90124
:10021000CC970A9788F4B8BA88E097E0FE01319746
:10022000F1F70197D9F7C8BA8CED95E0FE01319747
:10023000F1F70197D9F78DCF225330402A3031059D
:1002400088F4B8BA88E097E0FE013197F1F701979A
:10025000D9F7C8BA82EE94E0FE013197F1F7019721
:10026000D9F777CFB8BA8CED95E0FE013197F1F769
:100270000197D9F7C8BA88EE93E0FE013197F1F7FC
:0A0280000197D9F766CFF894FFCF7D
:00000001FF
