:100000000C942A000C9447000C9447000C94470071
:100010000C9447000C9447000C9447000C94470044
:100020000C9447000C9447000C9447000C94470034
:100030000C9447000C9447000C9447000C94470024
:100040000C9447000C9447000C9447000C94470014
:100050000C94470011241FBECFE5D8E0DEBFCDBF12
:1000600010E0A0E6B0E0E2ECF2E002C005900D92F4
:10007000A036B107D9F710E0A0E6B0E001C01D92AC
:10008000A036B107E1F70E9489000C945F010C943F
:10009000000090BD89B988E18AB986E880BD0895DD
:1000A0005D9BFECF8CB908955F9BFECF8CB1089508
:1000B000803319F420E330E02AC0813319F421E3BE
:1000C00030E025C0823319F422E330E020C08333CE
:1000D00019F423E330E01BC0843319F424E330E047
:1000E00016C0853319F425E330E011C0863319F4C6
:1000F00026E330E00CC0873319F427E330E007C073
:10010000883319F029E330E002C028E330E0C90168
:1001100008952F923F924F925F926F927F928F92AB
:100120009F92AF92BF92CF92DF92EF92FF920F9386
:100130001F93CF93DF938FEF87BB88E581BB10BC04
:1001400083E389B988E18AB986E880BDC0E0D0E060
:1001500088249924AA24BB2404E6602E712C10E480
:10016000212EB4E03B2EA0E14A2EF2E05F2EE0E823
:10017000CE2E219612BA12BACA30D1053CF42CE028
:1001800028BB71E0872E912CAA24BB24CE010B97AB
:100190000A9738F438E938BB8824992461E0A62E00
:1001A000B12CC531D10514F0C0E0D0E05F9BFECF8B
:1001B0008CB15D9BFECF8CB98235D9F65F9BFECFAB
:1001C0008CB15F9BFECF0CB15F9BFECFDCB05D9B23
:1001D000FECF8CB95D9BFECF0CB95D9BFECFDCB82A
:1001E0000E9458007C01802F0E9458008C018D2DA8
:1001F0000E94580020ED3FEFE20EF31E0053104026
:10020000C097E69C9001E79C300DF69C300D1124C0
:10021000820F931F980153E0220F331F5A95E1F785
:10022000000F111F200F311F820F931F4A970CF0F0
:10023000A0CF31E0A316B104B1F418BA42BA58BA4B
:1002400088EE93E00BC000000000000000000000FA
:1002500000002F5F2A35B9F7019711F020E0F3CFA6
:1002600018BA12BAC8BA81E08816910409F081CF91
:1002700018BA28E022BB22BA88EE93E00BC0000037
:10028000000000000000000000002F5F2A35B9F7D1
:10029000019711F020E0F3CF12BA12BA38BA69CF41
:1002A0000BC020E000000000000000000000000083
:1002B0002F5F2A35B9F70197009799F70895F894B9
:0202C000FFCF6E
:00000001FF
