:100000000C942A000C9447000C9447000C94470071
:100010000C9447000C9447000C9447000C94470044
:100020000C9447000C9447000C9447000C94470034
:100030000C9447000C9447000C9447000C94470024
:100040000C9447000C9447000C9447000C94470014
:100050000C94470011241FBECFE5D8E0DEBFCDBF12
:1000600010E0A0E6B0E0E0EAF2E002C005900D92F8
:10007000A036B107D9F710E0A0E6B0E001C01D92AC
:10008000A036B107E1F70E9489000C944E010C9450
:10009000000090BD89B988E18AB986E880BD0895DD
:1000A0005D9BFECF8CB908955F9BFECF8CB1089508
:1000B000803319F420E330E02AC0813319F421E3BE
:1000C00030E025C0823319F422E330E020C08333CE
:1000D00019F423E330E01BC0843319F424E330E047
:1000E00016C0853319F425E330E011C0863319F4C6
:1000F00026E330E00CC0873319F427E330E007C073
:10010000883319F029E330E002C028E330E0C90168
:1001100008952F923F924F925F926F927F928F92AB
:100120009F92AF92BF92CF92DF92EF92FF920F9386
:100130001F93CF93DF938FEF87BB10BC83E389B905
:1001400088E18AB986E880BDC0E0D0E0AA24BB245B
:100150006624772488249924E4E62E2E312C78EC2A
:10016000472E512C64E0C62E2CE028BB5F9BFECFAF
:100170008CB15D9BFECF8CB98235B1F75F9BFECF12
:100180008CB15F9BFECF0CB15F9BFECFDCB05D9B63
:10019000FECF8CB95D9BFECF0CB95D9BFECFDCB86A
:1001A0000E9458007C01802F0E9458008C018D2DE8
:1001B0000E94580020ED3FEFE20EF31E0053104066
:1001C0009C0120533040E29CC001E39C900DF29CC6
:1001D000900D1124280F391FC80153E0880F991F73
:1001E0005A95E1F7000F111F800F911F280F391F3B
:1001F000C536D1059CF4A20EB31E2196C501BE01E1
:100200000E94270136EF632E3FEF732E660E771E96
:100210002AE0822E912C860E971EA6CF2615370532
:1002200024F0821693060CF09FCF37E038BB88E0AD
:1002300097E0F2013197F1F70197D9F7C8BA8CED41
:1002400095E0F2013197F1F70197D9F78DCF97FB40
:10025000092E07260AD077FD04D00CD006D0002046
:100260001AF4709561957F4F0895F6F790958195F2
:100270009F4F0895AA1BBB1B51E107C0AA1FBB1FBC
:10028000A617B70710F0A61BB70B881F991F5A9522
:10029000A9F780959095BC01CD010895F894FFCF02
:00000001FF
